:400000000080002011000000950700009507000008B5044B1A6803F53F5302331A6000F0C1FB00BFFA46004010B5054C237833B9044B13B10448AFF300800123237010BD83
:400040005881FF1F0000000014320000084B10B51BB108490848AFF300800848036803B910BD074B002BFBD0BDE81040184700BF000000005C81FF1F14320000C880FF1F56
:4000800000000000094B1B683BB1094A0123136000235360054A13607047054A0123536000211160014A1360704700BFCC80FF1F7481FF1F094B5B683BB1094A012393606E
:4000C0000023D360054A53607047054A0123D36000219160014A5360704700BFCC80FF1F7481FF1F08B50120034B186100F0DAFE02F08AFF08BD00BF7481FF1F70B5C2B032
:4001000062B600F07BFD00F08DFD02F093FC02F09FFC02F05DFD02F069FD9C4800F0ECFD9B4802F087FB9B4802F0DAFF00F006FF02F0AEFF02F064FD00230BE042AAD11887
:40014000002201F8402C01F8802C01F8C02C02A9CA5401333F2BF1DD41F6FF734FF480420121084600F090FD064601F003F9044601F000F90546062302464021204601F0BD
:4001800013F9062322464021284601F00DF932AA92B245F6A031204601F01AF922AA92B245F6A031284601F013F92146304601F0B3F80121304601F055F841F6FF734FF484
:4001C00080420121084601F0E5F9064601F0D2F8044601F0CFF80546062302464021204601F0E2F8062322464021284601F0DCF812AA92B245F6A231204601F0E9F802AA90
:4002000092B245F6A231284601F0E2F82146304601F082F80121304601F024F80121002001F0DAFA01F010FB0028FBD0032001F0E1FB0023ADF804308DF8003001216846DF
:4002400002F0A8FE022101A802F08AFE02F03EFD02F04CFE10F0100F0AD09DF800000138012180B200F0D6FE02F05CFE02F0B8FE012402F03BFE10F0010F2DD002F0A4FE73
:40028000022829D102F038FE02F0A4FE424B1B6913B37CB1002002F0C3FC00F0CBFC0346002800DA0023FE2B00DDFF238DF8043000240EE0012002F0B3FC00F0BBFC0346BF
:4002C000002800DA0023FE2B00DDFF238DF8053001240022304B1A612F4B1B6863B1012001F0C8FA012816D1402232A901F000FB0022294B1A600EE0274B5B685BB101203C
:4003000001F0B8FA012806D1402222A901F0F0FA0022214B5A60204B9B686BB1022001F0A9FA012818D1402212A9022001F0E0FA0022194B9A600FE0174BDB6863B1022024
:4003400001F098FA012807D1402202A9022001F0CFFA0022104BDA6001F07CFA28B101F073FA10B1032001F045FB0021084600F0F3FD9DF8040000F00DFE0021012000F091
:40038000EBFD9DF8050000F005FE72E785000000B5000000E50000007481FF1FFEE700BFF0B40022174611E050F82760F3B226F0FF0608E001EB420511F812406D78A555A1
:4003C0000132013BDBB2002BF4D101371E2FEBD9F0BC704708B50A46002102F012FF08BDF8B51C4B1B78DBB21B4E3478E4B21B4F3D78EDB203F00701194A11701B0901329C
:40040000137044F00303337045F003033B700322144B1A704023144A13700232137006321370023213701022104B1A702023104A137005321370033213702C220D4B1A7022
:400440000A2000F0EBFF3D70347044220A4B1A70F8BD00BFCF010049F8460040F94600406E5800400D51004001590040205B0040235B0040585B00407658004008B502F0F1
:40048000B5FE08BD38B500242F4B1C80502202331A70EF2202331A80182202331A700C222A492B48FFF7EAFF06222A4B1A705222A3F580731A70284B1B78DBB2274A137069
:4004C0004FF4E162264B1A8041F25122023B1A8019250CE0234B1B7803F0010343EA440404F003044FF4F07002F01EFE013D0DB1032CEFD115B90320FFF750FF1A4A4FF4E3
:400500008073138007231370002318490B704820023108701370053213700222144B1A7004220A331A70134A137843F003031370013A137843F007031370013A137843F01C
:400540008003137038BD00BF804000408802004800410040004300400F010049A14600402242004025420040044000400640004001400040A2430040012814D810B4400057
:40058000C0B2094B53F820101A18147C0A7822430A700130C0B253F820201844017C13780B43137010BC704718320000012816D810B44000C0B20A4B53F820101A18147C88
:4005C0000A7822EA04020A700130C0B253F820201844017C137823EA0103137010BC704718320000012808D8044B03EB800252691844017F13780B4313707047183200003E
:40060000012809D8054B03EB800252691844017F137823EA01031370704700BF1832000038B572B6424A137843F00403137000240BE0404863001A19510001440A46898C69
:40064000106AFFF7C7FE0134E4B2062CF1D900240BE03849A3001819420088180622016DC06CFFF70BFF0134E4B2002CF1D032494FF09040FFF794FE0A25304B1D70022251
:4006800003F521731A7004212D48FFF7A3FE04212C48FFF79FFE04222B492C48FFF7EEFE04222B492B48FFF7E9FE2B4A137843F0020313701032137843F002031370274C37
:4006C000237843F040032370A2F58632513A137843F010031370082221492248FFF7CEFE2A4621492148FFF7C9FE2A4620492148FFF7C4FE082220492048FFF7BFFE082296
:400700001F492048FFF7BAFE1F4A137843F0080313701E4D61232B70FFF7B4FE81232B70FFF75EFE0E2221461948FFF7A7FE38BDE8460040183200007C00004883580040A4
:4007400000760040087600409402004810760040980200481876004003500140A0430040580200480251004060020048C05100406C020048F051004078020048125100402E
:4007800080020048225100402243004000480040B043004008B502F0FDFC03680C2B00D1FEE7FEE708B5104E104D16E029686B68AC68002204E051F8040B43F8040B0432B3
:4007C000A242F8D1E868002203E0002143F8041B04328242F9D11035013E002EE6D102F0DFFCFFF78BFCFEE7010000009833000008B5114A114B1A60114A136843F40073E6
:40080000136000230AE0032B03D80E4A52F8231000E00D490D4A42F8231001332F2BF2D90B4B1A780B4B1A70084A0B4B1A60FFF7F7FE00F0FDFC08BD0004FA050CED00E0A8
:4008400014ED00E000000000950700000080FF1FBC760040C080FF1F08ED00E010B59DF80840012C51D1013809282ED8DFE800F0052D2D052D2D0F192D230F2B03D92548E7
:40088000007840B222E02448007840B21EE00F2B03D92248007840B218E02148007840B214E00F2B03D91F48007840B20EE01E48007840B20AE00F2B03D91C48007840B2DC
:4008C00004E01B48007840B200E0002001EB401101FB02F1C90B8AB20D2B0BD8C3F10E0289B211418AB2611E124800EB810101338B7005E0631E0F4901EB83030F21997085
:40090000013C0C4B23F8242010BD002000F06EFD10BD00BF180100491C010049190100491D0100491A0100491E0100491B0100491F0100498881FF1FF8B5074602F0FCFBBA
:4009400006460D4D2B7843F003032B700B4C237843F0030323700A4B1F70032000F05EFD2B7803F0FC032B70237803F0FC032370304602F0E5FBF8BDF8460040F946004000
:40098000925800400022314B1A7101285DD170B538222F4B1A70042202331A70062201331A70002401331C7001331C700F2201331A7002331C7001331C7001331C70012545
:4009C0000A331D70142203F527631A70052601331E70162201331A7001331C70442203331A70482201331A7001331D7002331D70112201331A70192201331A7097220133A0
:400A00001A705220FFF798FF5822124B1A7001331C7005331E70022201331A7001331C7001331C70204600F073FB33220A4B1A602946304600F090FB2946952000F03CFD4F
:400A400006491D2000F0F4FC70BD70478881FF1F004E004094580040A081FF1F850C0000F0B583B0284D01272F70284E00247471102000F05FFB102000F00CFD07211D20DA
:400A800000F0EAFC0422224B1A7001331C7007331C70204A137843F0180313701E4B1C7003F2F5231C7001331C700A22A3F209331A7001331C7002331C70122205331A70AB
:400AC000132201331A7004331C701422A3F68C231A70009708234FF4004248F66B510220FFF7BCFE2B78013B06EB83039A780B4B1A702B78013B36F82320094B1A802878FF
:400B0000FFF740FF03B0F0BDD480FF1F8881FF1F96580040075B0040935800400E4E00400C4E004070B502F007FB06462A4B1B782A4B1A7842F001021A701A7842F010024D
:400B40001A7010331A7842F001021A701A7842F010021A70224D2B7843F002032B70214C237843F0020323701F4A137843F003031370032000F052FC2B7803F0FD032B70FD
:400B8000237803F0FD032370184A137843F0060313707A22164B1A70164A137843F0040313701032137843F0040313700F3A137843F0010313701032137843F0010313709A
:400BC0004FF000530C4A1360A2F5C0721360304602F0B6FA70BD00BFD480FF1FAA430040F8460040F9460040915800407758004082580040A143004080E200E008B5084BF6
:400C00009B794BB9064BDB7913F0FF0F01D1FFF727FF0122024B9A71FFF784FF08BD00BF8881FF1F024A137843F0010313707047004E00400E4B1B7803F00303012B03D897
:400C40000C4B188880B209E00A4A12780A49087842EA0020032B01D1084B1B78084B1B7913F0FF0F02D00022054B5A7100B27047144E0040104E0040114E0040124E004090
:400C80008881FF1F704700BFF0B583B016461F460B4C022525700023019300932B460A460146284600F044FB3A463146207800F019FB2946207800F003FB207803B0F0BD7C
:400CC000D580FF1F014B1B685865704708ED00E04001C0B2014B1870704700BF05E400E02022014B1A60704700E100E02022014B1A60704780E100E010B50446FFF7F6FF29
:400D00002046FFF7DFFF0720FFF7E2FFFFF7E8FF10BD00BF10B50B4C237803F09F032370237803F0F00323702378184340F010002070012000F072FB237803F0EF032370C8
:400D400010BD00BF2051004038B505460E4C237843F020032370237803F0BF032370002000F05CFB237803F0F003237023781D4345F010052570012000F050FB237803F0FE
:400D8000EF03237038BD00BF2051004070B5354B1A7802F08002D2B21A7033490A7802F0F00242F00F020A7001310A7802F0F0020A7001310A7802F0F0020A701A7802F049
:400DC000DF021A701A7842F040021A704FF4CA76002000F023FB234D2B7843F010032B70012000F01BFB214B1C78E4B22B7803F0EF032B70002000F011FB04F00804E4B2C1
:400E00002B7843F010032B70012000F007FB2B7803F0EF032B7014B90A2000F0FFFA013E0CB1002ED4D10F4A137803F0BF031370137803F08003DBB213700232137803F06A
:400E4000F00313700132137803F0F00343F00F0313700132137803F0F00343F00F03137070BD00BF20510040225100402151004010B50446FFF78AFF2009FFF765FF04F01D
:400E80000F00FFF761FF10BD38B505460078012404E0FFF7EDFF285D0134E4B20028F8D138BD00BF10B50446FFF770FF2009FFF731FF04F00F00FFF72DFF10BD08B52820B6
:400EC00000F096FA0320FFF725FF052000F090FA0320FFF71FFF0F2000F08AFA0320FFF719FF012000F084FA0220FFF713FF052000F07EFA0620FFF7D5FF0E20FFF7D2FF60
:400F00002C20FFF7CFFF0820FFF7CCFF0120FFF7C9FF0C20FFF7C6FF0320FFF7C3FF052000F066FA08BD00BF08B50C20FFF7BAFF0122014B1A7008BD9481FF1F08B5054B88
:400F40005B7823B9FFF7BAFF0122024B5A70FFF7EBFF08BD9481FF1F08B5032819D8DFE800F002070D1381F08000FFF79BFF08BDA1F14000C0B2FFF795FF08BDA1F16C0071
:400F8000C0B2FFF78FFF08BDA1F12C00C0B2FFF789FF08BD10B584B000238DF80E30092211E0144BA3FB0013DB081C4603EB83035900431ADBB2303304A9114401F80C3C56
:400FC0002046013AD2B20928EBD80A4BA3FB0013DB0803EB83035900431ADBB2303304A9114401F80C3C01AB9818FFF74DFF04B010BD00BFCDCCCCCC014B188880B27047AE
:4010000084400040024B187800F00700704700BF8640004070B504460D46FFF7F3FF0646FFF7EAFFA04257D02C4B1B7803F00203DAB296B900B184B938B9294B1C80294A3F
:40104000137803F0BF03137070BD264A137843F040031370224B1C8070BD22B3002322490B7002260F310E7004310B700C390B7803F07F030B701B4B1B7813F0080F00D047
:401080008CB91A4B18800721013B1970164B1B7813F0010FFAD111490B7803F0FD030B700021114B19700D4B1B7813F0020F0DD00E4B1C800DB1032200E001220A4B1A7048
:4010C000094B1B7813F0010FFAD170BD044B1C8002490B7813430B7070BD00BFA24300408440004086400040014000400240004010B5002404E02046FFF782FA0134E4B2E6
:40110000012CF8D9FF22014B1A7010BDD680FF1F10B50446FFF7ECFF2046FFF763FA014B1C7010BDD680FF1F014B188880B2704780400040034B1A7800F0F800104318703F
:40114000704700BF82400040024B187800F00700704700BF8240004070B505460E46FFF7F3FF0446FFF7E0FFA84256D02B4B1B7803F0010294B900B185B938B9284B1D8094
:40118000284A137803F0BF03137070BD254A137843F040031370224B1D8070BD22B3002321490B7001240F310C7004310B700C390B7803F07F030B701A4B1B7813F0080F6B
:4011C00000D08DB9194B18800721013B1970164B1B7813F0010FFAD110490B7803F0FE030B700021104B19700C4B1B7813F0010F0DD00E4B1D800EB1032200E001220A4BC2
:401200001A70094B1B7813F0010FFAD170BD044B1D8002490B7813430B7070BDA2430040804000408240004001400040024000400B4A7F2313708021517007E0DA0002F1C0
:40124000804202F5F042013BDBB21370002BF5D1DB0003F1804303F5F04300221A707047D880FF1F172815D831B103010A495A5C42F020025A5405E0030107495A5C02F0B2
:40128000DF025A540001044A835C43F00103835400207047012070471070004017280BD80001064BC25C02F0FE02C254C25C02F0DF02C254002070470120704710700040E4
:4012C00017280BD80001064A835C03F0F103490001F00E011943815400207047012070471070004041F6FF73994201D14FF4005141F6FF739A4201D14FF40052172808D8D7
:40130000C00000F1804000F5EC408180C280002070470120704700BF172805D8034B03EB0010417200207047012070471070004017281BD810B4C00000F1804404F5EC444C
:40134000D201D2B201F07F01114321709DF804201201D2B203F00F03134363709DF8083003F00F03A3700020E07001E00120704710BC704710B501F0DFFE0A4B5B78182BB3
:401380000BD9084A1478013B5370E30003F1804303F5F0431B78137000E0FF2401F0D0FE204610BDD880FF1F10F0800F0CD111F4704F0BD1C00000F1804000F5F040018003
:4013C0008270C37000207047012070470120704710F0800F08D1C00000F1804000F5F0408180C280002070470120704701BE704710B5044605E0084B186801F095FEA4F5F7
:401400000044B4F5004FF6D8034B586800FB04F001F08AFE10BD00BFE080FF1F08B5034B1B7A00FB03F001F07FFE08BDE080FF1F70B504460E46074B1D681F2802D9002007
:40144000FFF7D4FF04F01F04103455F8240045F8246070BD08ED00E038B504460D46072902D90020FFF7C2FF1F2C02D90020FFF7BDFF04F01F0000F1604000F564406D0105
:40148000EDB2057038BD00BF014B188880B2704708410040034B1A7800F0F80010431870704700BF0A410040024B187800F00700704700BF0A41004070B504460D46FFF7D5
:4014C000F3FF0646FFF7E0FFA04257D02C4B1B7803F00403DAB296B900B184B938B9294B1C80294A137803F0BF03137070BD264A137843F040031370224B1C8070BD22B3A0
:40150000002322490B70042613310E7004390B7008390B7803F07F030B701B4B1B7813F0080F00D08CB91A4B18800721013B1970164B1B7813F0010FFAD111490B7803F096
:40154000FB030B700021114B19700D4B1B7813F0040F0DD00E4B1C800DB1032200E001220A4B1A70094B1B7813F0010FFAD170BD044B1C8002490B7813430B7070BD00BFEC
:40158000A1430040084100400A4100400140004002400040F0B583B016461F460B4C032525700023019300932B460A4601462846FFF7BEFE3A4631462078FFF793FE022198
:4015C0002078FFF77DFE207803B0F0BDF080FF1FF8B501F0B1FD0546404A137843F0010313701032137843F00103137001273C4B1F700226943B1E7002F5E2521B321378A9
:4016000003F07F0313700020FFF708FF354C237803F0F9032370344A137803F0DF03137023783B4323703846FFF7F8FE2820FFF7F5FE2E4B1A7802F07F021A701A7802F0C3
:40164000BF021A702378334323703046FFF7E6FE237843F0040323700023254A13700132137004E0FF21234AD15401339BB2082BF8D9284601F064FD07211720FFF7ECFEDE
:401680001D491720FFF7D4FE07211820FFF7E4FE1A491820FFF7CCFE07210320FFF7DCFE17490320FFF7C4FE07210420FFF7D4FE14490420FFF7BCFE00211620FFF7CCFE80
:4016C00011491620FFF7B4FE07210C20FFF7C4FE0E490C20FFF7ACFEF8BD00BFA54300409D6000409443004012600040F851004084600040B081FF1FB11E0000211D0000D8
:401700004D1E00007D1E0000B91E00005D1F000008B5234B18700023224A1370224A1370224A1370224A1370224A1370224A1370224A1370224B4FF400021A604FF0807294
:401740001A6008221A6010221A6003201D4A10704FF480021A6020221B4B1A7011B1012906D00BE0194A137803F0FE0313700AE0164A137843F00103137004E0134A1378B7
:4017800043F0010313700322114B1A708022203B1A70012001F0C8FC04220E4B1A7008BDD081FF1FD681FF1FD481FF1FD581FF1FD181FF1FBC81FF1FD381FF1F4C82FF1F45
:4017C00000E100E09E6000409C60004009600040286000401260004038B504460D46064B1B7823B9FFF7F4FE0122034B1A7029462046FFF78DFF38BD9681FF1F00230A4A66
:4018000013700A4A13700A4A13700A4A13700A4A13700A4A13700A4A13700322094B1A708022203B1A707047D681FF1FD481FF1FD581FF1FD181FF1FBC81FF1FD381FF1F41
:401840004C82FF1F28600040014B1878704700BFD581FF1F064B1B7813F0FF0F05D0044B1878C0B200221A7070470020704700BFD481FF1F00EB40008300024A1344587846
:40188000704700BFE081FF1F10B5044600EB40039800144B1844037913F0800F03D00A0C4FF4804302E00B0C4FF48042012C02D0022C07D00CE00021084600F0E7FF0A4B1E
:4018C000185505E00021084600F0C2FF064B1855631EDBB2072B03D8FFF74CFD034B185510BD00BFE081FF1FA481FF1FB081FF1F431EDBB2072B6FD82DE9F04104460E46BA
:40190000154600EB40029300344A1344DB889BB2C3F500739D4209D900EB400293002F4A1344DD88ADB2C5F50075ADB204EB440293002A4A1344DB7843EA1523284922015A
:4019400088188B54EBB24370264B1B5DFF2B03D131462046FFF798FF04EB440293001F4A134400225A705EB355B31F4F385DFFF795FCDFF870801123FE22294618F8040092
:40198000FFF712FD22010832184D2A4492B2B1B218F80400FFF71CFD18F80410385DFFF7BBFC0121385DFFF75DFC24012B5D43F002032B552B5D03F0FD032B55BDE8F08146
:4019C00004EB44029300054A13445A79D2B22401074B1A55BDE8F081704700BFE081FF1FFC5F0040B081FF1FA481FF1F70600040FE5F0040431EDBB2072B0BD842000244CC
:401A00009300054A134400225A705A79D2B20001024B1A54704700BFE081FF1FFE5F00401D4B19781D4A13889BB20B449BB2138000220FE01A494B681B78DBB219488354E6
:401A40004B6801334B600132D2B20B889BB2013B9BB20B80124B1B889BB20BB1072AE9D90D4B1B78DBB2082B00D05AB10E490B7883F080030B700F210C4B197002210C4BD2
:401A8000197004E0022309490B7009490B70094B1A70014B1A7070474C82FF1F5282FF1FC481FF1F00600040D281FF1FBD81FF1FD681FF1F4D82FF1F0222074B1A708022DD
:401AC000064B1A700F22064B1A700023054A1370054A137001207047D681FF1FD281FF1FBD81FF1F4C82FF1F4D82FF1F08B5FFF797FF08BD10B4194B197801F00F01023942
:401B0000C9B2174A13889BB20B449BB21380002011E0144A5468144B1B5CDBB223705368013353600130C0B20139C9B213889BB2013B9BB213800B4B1B889BB20BB1002968
:401B4000E7D10A4B19700A4A137883F0800313700B22084B1A7010BC704700BF296000405282FF1FC481FF1F006000404D82FF1FD281FF1FBD81FF1F0623064A1370064A67
:401B800013708022054B1A700022054B1A700120704700BFD681FF1FBD81FF1FD281FF1F4D82FF1F064B9B6843B1054B9A6810709A6804490988518000229A60704700BF07
:401BC000C481FF1F5282FF1F08B5134B1A78D2B21A701B78DBB213F0800F02D00F4A137008BD0220FFF7DEFF0D4B1B7803F06003202B05D0402B06D043B900F059FC06E0F2
:401C000001F0ACFA03E000F0E7FD00E0002010B90322024B1A7008BD28600040BD81FF1F0060004008B5094B1978094A13889BB20B449BB213800022064B1A700120FFF7E8
:401C4000B1FF0322044B1A7008BD00BF4C82FF1F5282FF1FD681FF1FBD81FF1F08B50B4B1B78DBB2042B06D0062B07D0022B0BD1FFF7D8FF08BDFFF73DFF08BD0320FFF798
:401C800091FF0322024B1A7008BD00BFD681FF1FBD81FF1F08B50022044B1A700120FFF781FF0322024B1A7008BD00BFD681FF1FBD81FF1F08B50B4B1B7813F0FF0F07D015
:401CC000084A137843F0800307490B70002313700022064B1A700120FFF764FF0322044B1A7008BDBC81FF1F08600040D681FF1FBD81FF1F08B5094B1B78DBB2042B06D09C
:401D0000062B07D0022B07D1FFF7F0FE08BDFFF7C1FF08BDFFF7CEFF08BD00BFD681FF1F08B5284B1B78DBB213F0100F48D013F0800F0CD003F00F03012B16D1FFF744FF6D
:401D4000214B1B7813F0800F11D1012312E013F0400F03D0FFF7CEFF01230BE013F0200F07D0FFF77BFF012304E0002302E0002300E0002323B3134B1B7813F0800F1FD1EE
:401D8000124B1B78124A12781343124A13701278D2B2934214D10C4B1B78DBB2094A127812F0800F07D1084B1B78DBB2054A1370137803F00F03044A1278D2B29342EAD1D2
:401DC00008BD00BF28600040BD81FF1FD281FF1F4D82FF1F296000400022064B1A80064B9B682BB1044A916800230B7092685380704700BF5282FF1FC481FF1F08B50F4B43
:401E00001B889BB213B9FFF757FE15E002220C4B1A7000220B4B1A70FFF7DEFF0A4AD179937943EA0123054A128892B2934201D2024A1380FFF7F4FD012008BDC481FF1FED
:401E4000D681FF1FD281FF1F006000400122094B1A700F3B9B7C084B1B7B03F00303934204D0054AD37B83F08003D3730122024B5A7370470B600040E081FF1F02220A4B7F
:401E80001A700F3B93F82230084B1B7E03F00303012B04D0054AD37E83F08003D3760122024B5A76704700BF0B600040E081FF1F08B5FFF7A3FC08BD70B4234B1C78E4B2FA
:401EC00001233DE014F0010F37D01A4619011F48084481784078014011F0010F17D003EB4305A8001A4D2844007910F0800F0ED0164D1E01A85D00F0FE00A85503EB430530
:401F0000A800134D28444579EDB21248855511F0020F0FD002EB4205A8000D4D2844007910F0800F06D102EB4205A800084D2844002545701201084881540133DBB264084E
:401F4000002CBFD170BC70479F60004070600040E081FF1FFE5F00407260004008B500F047FC08BD30B4012341E0194623481A0184180C2585541F22627003EB4300820016
:401F80001F480244527912F0FF0F13D003EB430082001B480244127912F0800F04D01801184A024495700AE01801164A02440820907004E01801134A02448020907048004B
:401FC000084482000E480244D488E4B208010B4901448C71D088C0F30720C871D088C0B20871D288C2F307224A710133DBB2082BBBD9FF22044B1A7030BC70477060004010
:40200000E081FF1FFC5F00400A600040074B1A78074B03EBC2035B681A7C824204D9C000103018444068704700207047D081FF1F70320000F8B5404B1B7813F0FF0F79D031
:402040003D4B18780138C0B2FFF7E0FF047AC2683A4B1878C0B200236AE01178884264D13749095CC9B25578A9425ED1917801F07F01D67806F00306DFF8C8E04D000D4479
:40208000AF000EEB07054FF0000C85F803C092F802C085F804C092F803C00EF807C097882F8192F90250002D0DDA012E01D1072700E00D274E000E44B500224E35446F7119
:4020C00001266E700CE0012E01D1052700E009274E000E44B5001B4E35446F7100266E70DFF868E00F010EEB07060125B57001FA05F529448D00134929440D89C5F30725E5
:402100000EF807500D89EDB27570CE88F6B20E4D3D44AE71CE88C6F30726EE71CE88F6B22E71C988C1F30721697108320133DBB2A34292D3F8BD00BFD581FF1FD181FF1F53
:40214000C081FF1FE081FF1F70600040FC5F0040034B1A78034B03EBC2035868704700BFD081FF1F7032000008B5084B18780138C0B2FFF74BFF30B142681279023200EBEE
:40218000C203586808BD002008BD00BFD581FF1F2DE9F041002310E0684D5900CA189600AC190022AA55A270E2702281A272627034462C4462710133DBB2082BECD940B99B
:4021C0000AE000225E49CA545E49CA540133DBB200E00023002BF4D05B4B1B7813F0FF0F00F0A980584B18780138C0B2FFF70EFF4368DB7913F0400F05D0544A137843F0D0
:402200000103137004E0514A137803F0FE031370057A012464E0C16800235DE08A7802F07F02944255D1264604EB4407BA00434F3A44128992B28F88BA4207D204EB440E38
:402240004FEA8E02DFF8F4E0724417810A783C4FBA5CD2B24F78BA423BD191F802C0DFF8DCE07200324497000EEB070282F804C0CA780EF80720CA7802F0030291F90270E5
:40228000002F13DA012A02D14FF0070801E04FF00D08DFF8A8E0720002EB060C4FEA8C07774487F8058001267E7012E0012A02D14FF0050801E04FF00908DFF880E07200FB
:4022C00002EB060C4FEA8C07774487F8058000267E7008310133DBB2AB429FD30134E4B2082C98D9C06800220CE0837803F07F0310F8084B03EB43039900104B19448C72F3
:402300000132D2B2AA42F0D3FFF72EFF104B1860002101230BE0094D5A00D01884002C44E180228992B2114489B20133DBB2082BF1D9FFF717FEBDE8F08100BFE081FF1F88
:40234000C081FF1F5082FF1FD581FF1FD381FF1FDC81FF1F08B5154B1B7903F07F035A1ED2B2072A20D8590019448A0010490A44917841F0010191700021D170517841F0E2
:4023800002015170127912F0800F05D01B01094A1A448D23937004E01B01064A1A4489239370FFF7E9FB08BD002008BD00600040E081FF1FFC5F0040274B1B7903F07F03D2
:4023C0005A1ED2B2072A44D810B5590019448A0022490A44917801F0FE0191700021D1701F4C1801215C01F07F012154517801F0FD015170127912F0800F13D003EB4301E9
:402400008A0016490A445278D2B2012A04D1224602440C23937019E01B01114A1A440D23937013E003EB43018A000C490A445278D2B2012A05D11B01094A1A44082393709A
:4024400004E01B01064A1A4409239370FFF794FB10BD0020704700BF00600040E081FF1FFC5F004010B50E4B1C79E4B20D4B18780138C0B2FFF7CAFD43681B799C4201D94D
:40248000012C0AD8084A135DDBB208490B55044B9B78DBB21355012010BD002010BD00BF00600040D581FF1FC081FF1F5082FF1F10B59B4B1B78DBB200219A4A118013F055
:4024C000800F00F09C80964A5278D2B20A2A00F25F81DFE812F058005D015D015D015D015D010B005D0181005D0189008C4BDB78DBB2012B09D1FFF72BFE4268894B5A6031
:4025000012221A80FFF77AFC10BD854BDB78DBB2022B13D1824B9878FFF778FD002800F0398142687F4B5A605A68D1785A68927842EA01221A80FFF761FC10BD784BDB7895
:40254000DBB2032B05D01BE00A7811440133DBB201E000237449724A9278D2B2934203D20A7812F0FF0FEFD10B7813F0FF0F00F013810B786B4A13805160FFF73FFC10BD9F
:4025800000F0ECFD10BD13F0030317D0022B40F0058164490B80624B1B7903F07F0303EB43039A00614B1A449278D2B2604B1A7000225A704B60FFF721FC10BD59490223DB
:4025C0000B805C4B1A78D2B2594B1A7000225A704B60FFF713FC10BD524B01221A80564A5A60FFF70BFC10BD4E4A012313804C4B1B7952490B445360FFF700FC10BD484A16
:402600005278013A0A2A00F2CB80DFE812F04C00C9007900C9000B00C900C900C9001300C90030003E4B9B78DBB2454A1370FFF7A3FA10BD3A4B9B7803F0FF041BB1601E1F
:40264000C0B2FFF7E3FC04B110B9002C40F0AA80394B1B78DBB29C4206D0374B1C700120384B1870FFF794FDFFF786FA10BDFFF7F9FE002800F09880294A1379DBB212797F
:40268000D2B231490A70314AD25CD2B22B49CB5CDBB29A4204D001222A4B1A70FFF7CAFCFFF76AFA10BD03F00303012B17D04BB1022B7BD11A4B9B7813F0FF0F78D1FFF74F
:4026C0007BFE10BD164B9B78DBB2012B72D1194A137803F0FD031370FFF74EFA10BD104B1B7913F0FF0F67D10D4B98781B79DBB21749CA5C22EA0002CA54FFF73DFA10BD48
:4027000003F00303012B32D023B3022B56D1044B9B7813F0FF0F53D1FFF71CFE10BD00BF00600040C481FF1FC4320000E081FF1F9881FF1FD381FF1FD581FF1FC081FF1F21
:40274000BC81FF1FD481FF1FD181FF1F5082FF1FD881FF1F1D4B9B78DBB2012B32D11C4A137843F002031370FFF706FA10BD174B1B7913F0FF0F27D1144B98781B79DBB27F
:402780001449CA5C22EA0002CA54FFF7F5F910BD002010BD002010BD002010BD002010BD002010BD002010BD002010BD002010BD002010BD002010BD002010BD002010BD9D
:4027C000002010BD002010BD002010BD00600040D381FF1FD881FF1F044B1B7813F0800F01D0024B5B780020704700BF00600040024B1878C0F38010704700BF8F45004044
:40280000014B1B689865704708ED00E04001C0B2014B1870704700BF06E400E04022014B1A60704700E100E04022014B1A60704780E100E010B50446FFF7F6FF2046FFF763
:40284000DFFF0720FFF7E2FFFFF7E8FF10BD00BFF0B583B016461F460B4C012525700023019300930A4601462846FEF761FD3A4631462078FEF736FD02212078FEF720FD42
:40288000207803B0F0BD00BFF180FF1FF0B583B016461F460B4D00242C700194009423460A4601462046FEF743FD3A4631462878FEF718FD02212878FEF702FD287803B0B2
:4028C000F0BD00BFF280FF1F08B50A280FD00C2802D0082806D102E04FF4805209E04FF4807206E00020FEF781FD002201E04FF480620021094B198042F2107303FB02F393
:4029000003F6C413064A82FB0302DB17C3EBE223044A1360044B198008BD00BF5482FF1FAD8BDB685882FF1F5682FF1F38B500F003FC04461E4A137843F0010313701032B1
:40294000137843F0010313701A3A137843F0020313701032137843F00203137002F5AA521232137843F0030313700422114B1A70013B1A7802F0BF021A701A7842F0030292
:402980001A700822053B1A700225A3F597530C3B1D70094A137843F0080313700A20FEF73DFD064B1D60204600F0CAFB38BD00BFAB43004006590040275B004080E200E0B6
:4029C00010B504460A280DD00C2802D0082804D101E0C42207E0442205E00020FEF706FDC42200E08422034B1A702046FFF76CFF10BD00BF0259004008B5102000F07EFB15
:402A000007210120FEF728FD07490120FEF710FD064A137843F0060313700820FFF7D0FF0022034B1A8008BD612A0000015900405C82FF1F08B5054B1B7823B9FFF7DCFFFC
:402A40000122024B1A70FFF771FF08BD9A81FF1F024A137843F001031370704700590040704700BF08B50A280FD00C2802D0082806D102E04FF4805209E04FF4807206E0CB
:402A80000020FEF7B3FC002201E04FF480620021094B198042F2107303FB02F303F6C413064A82FB0302DB17C3EBE223044A1360044B198008BD00BF6082FF1FAD8BDB6883
:402AC0006482FF1F6282FF1F38B500F035FB05461E4A137843F0020313701032137843F0020313701A3A137843F0010313701032137843F00103137002F5AA521A32137858
:402B000043F0030313700424114B1C70013B1A7802F0BF021A701A7842F003021A700822053B1A700222A3F59753123B1A70094A137843F0080313700A20FEF76FFC064B80
:402B40001C60284600F0FCFA38BD00BFAB4300400E5900402F5B004080E200E010B504460A280DD00C2802D0082804D101E0C42207E0442205E00020FEF738FCC42200E0BF
:402B80008422034B1A702046FFF76CFF10BD00BF0A59004008B5102000F0BAFA07210220FEF75AFC07490220FEF742FC064A137843F0060313700820FFF7D0FF0022034BDF
:402BC0001A8008BDFD2B0000095900406882FF1F08B5054B1B7823B9FFF7DCFF0122024B1A70FFF771FF08BD9B81FF1F024A137843F001031370704708590040704700BF99
:402C000010B5002404E02046FDF7D0FC0134E4B2012CF8D9FF22014B1A7010BDF380FF1F10B50446FFF7ECFF2046FDF7A5FC014B1C7010BDF380FF1F70B58123124A1370BA
:402C40000E3A13700826114B1E700F2511331D70002401331C704FF400420D4B1A6007212846FEF7F9FB0B492846FEF7E1FB1022094B1A70094B1C70094B1C70094B1C706F
:402C8000304600F065F970BDD6490040CA49004080E100E0F52C00006A82FF1F7482FF1F6C82FF1F6D82FF1F08B500F045FA064A137843F0040313701032137843F004034D
:402CC000137000F03DFA08BDA543004008B5074B1B7823B9FFF7B0FF0122044B1A70FFF7E3FF4FF40042024B1A6008BD9C81FF1F00E100E008B5724B1B78DAB2714B1B7851
:402D000013F0400F40F0DB806E4B1B7813F0100F00F0D28012F0200F03D102F00903092B15D1684B1B78DBB2112B10D166490B7803F0EF030B70654B197801F0DF011970CC
:402D4000197841F01001197010215E4B197012F0010F00F0B48012F0080F42D05C4B1B7813F0010F2CD05B4B1A78D2B25A4B1B78DBB29A4215D2574A1378DBB257490968DC
:402D8000CB5CDBB252490B7014214D4B197013780133DBB213704D4A137843F0020313700AE0FF224A4B1A701422013B1A70474A137843F0060313701222424B1A7008BD36
:402DC00010223F4B1A7011223E4B1A703F4A137843F0200313703C4A137843F01003137008BD384B1B78DBB2112B21D13C4B1A78D2B23C4B1B78DBB29A4210D2344B1978D8
:402E0000C9B21022013B1A70354A1378DBB236480068C15413780133DBB2137008BD0022274B1A70294A137843F04003137008BD244B1B78DBB2122B3AD112F0020F24D140
:402E4000244B1A78D2B2244B1B78DBB29A4210D2204A1378DBB221490968CB5CDBB21C490B700421164B197013780133DBB2137008BDFF22164B1A700422013B1A70134A97
:402E8000137843F00403137008BDFF22104B1A700022013B1A700D4B1A7802F0FD021A701A7842F001021A701022064B1A7008BD0020FEF79BFA08BD1022024B1A7008BD52
:402EC000D74900406A82FF1FD64900407482FF1FD84900406C82FF1F6F82FF1F7082FF1F6D82FF1F6E82FF1F7882FF1F014B1878704700BF7482FF1F4FF40041064B196082
:402F0000064B18781A7802F0F2021A70044B196000F00F00704700BF80E100E07482FF1F00E100E04FF40041064B1960064B18781A7802F02F021A70044B196000F0F00045
:402F4000704700BF80E100E07482FF1F00E100E000F07F00014B1870704700BFCA490040024660B14FF400430548036005480260054A11700021054A1170054A1360704741
:402F800080E100E07082FF1F6F82FF1F6C82FF1F00E100E0024660B14FF400430548036005480260054A11700021054A1170054A1360704780E100E07882FF1F6E82FF1F05
:402FC0006D82FF1F00E100E0014B1878704700BF6C82FF1F0022014B1A7070476C82FF1F0022014B1A7070476D82FF1F024A137843F08003137070477A640040014B187075
:40300000704700BF8C640040014B1878704700BF6C64004008B50146014800F095F808BD2A640040024B186820F07F40704700BF4A64004008B50146014800F085F808BDAC
:403040000A64004008B501E0FFF7ECFFFFF7DCFF10F0080FF8D108BD10B50B4C2046FFF7D9FF2046FFF7E6FF00F066F8074A137843F01003137000F063F8FFF7E3FF0120E5
:40308000FFF7BCFF10BD00BFFF9E24009C64004008B5054B1B7823B9FFF7DEFF0122024B1A70FFF7A3FF08BD9D81FF1F014B1B681864704708ED00E04001C0B2014B187092
:4030C000704700BF00E400E00122014B1A60704700E100E00122014B1A60704780E100E010B50446FFF7F6FF2046FFF7DFFF0720FFF7E2FFFFF7E8FF10BD00BF034B1A78D9
:4031000000F0F80010431870704700BF06410040034B1A7800F0F80010431870704700BF02410040000000000230800803D000BF01380046FCD17047EFF3108072B6704793
:4031400080F31088704700BFCBB20370C1F307234370C1F307418170704700BF0B4B1B7803F00303012B02D0022B03D00CE0074B1B7909E0054B1B7903F07F0303EB4303C2
:403180009A00034B1A44937A0020704700600040E081FF1F014B1868704700BF5481FF1F0E4B70B51E460E4C0025E41AA410A54204D056F8253098470135F8E700F0DAF86A
:4031C000084B094C1E46E41AA4100025A54204D056F8253098470135F8E770BD8033000080330000803300008833000010B5431E0A44914204D011F8014B03F8014FF8E7FF
:4032000010BD03460244934202D003F8011BFAE770470000000000001D510040005B00401D510040005B004040048008035B00402443004040000000C8490040190030510E
:403240000040400000000140001000140140000800400140000A004C0140000200500140200000006052004050020048060000000100000078320000010000006033000084
:4032800000000000000000000100000090320000010000004033000002000000B4320000000000000000000000000000B032000000000000000081024000000000008202C6
:4032C00040000000040309042C0343007900700072006500730073002000530065006D00690063006F006E0064007500630074006F0072004A03470065006E0065007200A5
:403300006900630020005500530042002000420075006C006B0020005700720061007000610072006F0075006E00640020005400720061006E007300660065007200000061
:4033400009022000010100803209040000020000000007058102400000070582024000001201000200000008B40451800000010200014300F8B500BFF8BC08BC9E46704754
:403380004D000000F1070000F8B500BFF8BC08BC9E46704729000000A8330000C880FF1F900000002801000000000000010000000100000001FFFF007F8000000F00000017
:4033C0000000E02EC05D00001800000000366E01FFFFFFFF000000000000000000000000000000000000000000000000000000000000000072330000000000000000000044
:4034000000000000000000000000000000000000000000000000000000000000000000000000000000000000000000000000000000000000F480FF1F0000000000000000FA
:40344000000000000000000000000000000000000000000000000000000000000000000000000000000000000000000000000000000000000000000000000000000000004C
:40348000000000000000000000000000000000000000000000000000000000000000000000000000000000000000000000000000000000000000000000000000000000000C
:4034C00000000000000000000000000000000000000000000000000000000000000000000000000000000000000000000000000000000000000000000000000000000000CC
:40350000000000000000000000000000000000000000000000000000000000000000000000000000000000000000000000000000000000000000000000000000000000008B
:020000040003F7
:0200000480007A
:400000000145004001520040015B004001640040010101400402014005030140010501400107014001090140280A01400A0B0140200C0140140D0140010F01400215014077
:40004000021B01400E4001400E41014006420140044301400644014008450140094601400A47014007480140034901400D4C0140084D014003500140045101407E027C4004
:4000800027218C0DE208B880BE40D804DF011A029602B201E208EA02EE08EE01EE01405449FF4AFF4BFF4F01501852805A045B045D995F016040624064406540668068800D
:4000C0006A806C806E80C054C9FFCAFFCBFFCD83CE03CF01D018DA04DD09DF01E040E240E440E540E680E880EA80EC80EE804280468048024C0270029A80A402AF80D081E1
:40010000D21812012201300136013E01405445EC4602480749FF4AFF4BFF4D834E034F015018540158045A045B045C095D995F016040624064406540668068806A806C8090
:400140006E800C0216801E801F8046804C024D044F0156805D045E805F01C210C410D080D210D6D0E208E820EA02E208EA01EC10EA01EC10120817803202338037483B1010
:400180003C0140018708C4C0CCF0CE90D010E210331037808710940197109B909F40A780AA08AB10AE02CC30E210EA403E1094019F40AF80CE20EE1094019610AB40EE801E
:4001C000101015017F088404C40CDE0184029101960498109C04AE04B308E8041A8045089101960498109C04A402C608D00108040C029101960498109C04A402A508AA404D
:40020000C20C210825108C018D0894019610C860AA10B510EA801040132014801E0478107D01910196049810A508C40EC601DE0378407C8098C0AB20B508DC01DE04EC08A3
:4002400001010D010F0100BF013E03C010A00000203000003000000000000000000017003000000030003000000000004000000000000000C0000000000B0B000000C000F0
:40028000007F7F0000000000020018010200180195001801000200000003000000000000000000000000000000000000000000000000000000000000000000000000000057
:4002C00000000000000000000000000000000000000000000000000000000000000000000000000000000000000000000000000000000000000000000000000000000000FE
:4003000000000000000000000000000000000000000000000000000000000000000000000000000000000000000000000000000000000000000000000000000000000000BD
:40034000000000000000000000000000000000000000000000000000000000000000000000000000000000000000000000000000000000000000000000000000000000007D
:40038000000000000000000000000000000000000000000000000000000000000000000000000000000000000000000000000000000000000000000000000000000000003D
:0200000490006A
:0400000000004005B7
:0200000490105A
:04000000BC90ACAF55
:0200000490303A
:020000009EDB85
:0200000490402A
:4000000000000000000000000000000000000000000000000000000000000000000000000000000000000000000000000000000000000000000000000000000000000000C0
:400040000000000000000000000000000000000000000000000000000000000000000000000000000000000000000000000000000000000000000000000000000000000080
:400080000000000000000000000000000000000000000000000000000000000000000000000000000000000000000000000000000000000000000000000000000000000040
:4000C0000000000000000000000000000000000000000000000000000000000000000000000000000000000000000000000000000000000000000000000000000000000000
:0200000490501A
:0C00000000012E16106900012E29AF44EB
:00000001FF